{
  "_format": "hh-sol-artifact-1",
  "contractName": "SnakeGameRewards",
  "sourceName": "contracts/SnakeGameRewards.sol",
  "abi": [
    {
      "inputs": [
        {
          "internalType": "address",
          "name": "merkleValidator",
          "type": "address"
        }
      ],
      "stateMutability": "nonpayable",
      "type": "constructor"
    },
    {
      "anonymous": false,
      "inputs": [
        {
          "indexed": true,
          "internalType": "address",
          "name": "account",
          "type": "address"
        },
        {
          "indexed": true,
          "internalType": "address",
          "name": "operator",
          "type": "address"
        },
        {
          "indexed": false,
          "internalType": "bool",
          "name": "approved",
          "type": "bool"
        }
      ],
      "name": "ApprovalForAll",
      "type": "event"
    },
    {
      "anonymous": false,
      "inputs": [
        {
          "indexed": true,
          "internalType": "address",
          "name": "operator",
          "type": "address"
        },
        {
          "indexed": true,
          "internalType": "address",
          "name": "from",
          "type": "address"
        },
        {
          "indexed": true,
          "internalType": "address",
          "name": "to",
          "type": "address"
        },
        {
          "indexed": false,
          "internalType": "uint256[]",
          "name": "ids",
          "type": "uint256[]"
        },
        {
          "indexed": false,
          "internalType": "uint256[]",
          "name": "values",
          "type": "uint256[]"
        }
      ],
      "name": "TransferBatch",
      "type": "event"
    },
    {
      "anonymous": false,
      "inputs": [
        {
          "indexed": true,
          "internalType": "address",
          "name": "operator",
          "type": "address"
        },
        {
          "indexed": true,
          "internalType": "address",
          "name": "from",
          "type": "address"
        },
        {
          "indexed": true,
          "internalType": "address",
          "name": "to",
          "type": "address"
        },
        {
          "indexed": false,
          "internalType": "uint256",
          "name": "id",
          "type": "uint256"
        },
        {
          "indexed": false,
          "internalType": "uint256",
          "name": "value",
          "type": "uint256"
        }
      ],
      "name": "TransferSingle",
      "type": "event"
    },
    {
      "anonymous": false,
      "inputs": [
        {
          "indexed": false,
          "internalType": "string",
          "name": "value",
          "type": "string"
        },
        {
          "indexed": true,
          "internalType": "uint256",
          "name": "id",
          "type": "uint256"
        }
      ],
      "name": "URI",
      "type": "event"
    },
    {
      "inputs": [],
      "name": "HIGH_SCORE",
      "outputs": [
        {
          "internalType": "uint256",
          "name": "",
          "type": "uint256"
        }
      ],
      "stateMutability": "view",
      "type": "function"
    },
    {
      "inputs": [],
      "name": "HIGH_SCORE_HOLDER",
      "outputs": [
        {
          "internalType": "address",
          "name": "",
          "type": "address"
        }
      ],
      "stateMutability": "view",
      "type": "function"
    },
    {
      "inputs": [],
      "name": "HIGH_SCORE_TOKEN_ID",
      "outputs": [
        {
          "internalType": "uint256",
          "name": "",
          "type": "uint256"
        }
      ],
      "stateMutability": "view",
      "type": "function"
    },
    {
      "inputs": [
        {
          "internalType": "address",
          "name": "account",
          "type": "address"
        },
        {
          "internalType": "uint256",
          "name": "id",
          "type": "uint256"
        }
      ],
      "name": "balanceOf",
      "outputs": [
        {
          "internalType": "uint256",
          "name": "",
          "type": "uint256"
        }
      ],
      "stateMutability": "view",
      "type": "function"
    },
    {
      "inputs": [
        {
          "internalType": "address[]",
          "name": "accounts",
          "type": "address[]"
        },
        {
          "internalType": "uint256[]",
          "name": "ids",
          "type": "uint256[]"
        }
      ],
      "name": "balanceOfBatch",
      "outputs": [
        {
          "internalType": "uint256[]",
          "name": "",
          "type": "uint256[]"
        }
      ],
      "stateMutability": "view",
      "type": "function"
    },
    {
      "inputs": [
        {
          "internalType": "bytes",
          "name": "proof",
          "type": "bytes"
        },
        {
          "internalType": "bytes32[]",
          "name": "path",
          "type": "bytes32[]"
        }
      ],
      "name": "claimHighScoreToken",
      "outputs": [],
      "stateMutability": "nonpayable",
      "type": "function"
    },
    {
      "inputs": [
        {
          "internalType": "bytes",
          "name": "proof",
          "type": "bytes"
        }
      ],
      "name": "getAddressHash",
      "outputs": [
        {
          "internalType": "address",
          "name": "",
          "type": "address"
        },
        {
          "internalType": "address",
          "name": "",
          "type": "address"
        }
      ],
      "stateMutability": "view",
      "type": "function"
    },
    {
      "inputs": [
        {
          "internalType": "address",
          "name": "account",
          "type": "address"
        },
        {
          "internalType": "address",
          "name": "operator",
          "type": "address"
        }
      ],
      "name": "isApprovedForAll",
      "outputs": [
        {
          "internalType": "bool",
          "name": "",
          "type": "bool"
        }
      ],
      "stateMutability": "view",
      "type": "function"
    },
    {
      "inputs": [
        {
          "internalType": "address",
          "name": "_from",
          "type": "address"
        },
        {
          "internalType": "address",
          "name": "_to",
          "type": "address"
        },
        {
          "internalType": "uint256[]",
          "name": "_ids",
          "type": "uint256[]"
        },
        {
          "internalType": "uint256[]",
          "name": "_values",
          "type": "uint256[]"
        },
        {
          "internalType": "bytes",
          "name": "_data",
          "type": "bytes"
        }
      ],
      "name": "safeBatchTransferFrom",
      "outputs": [],
      "stateMutability": "nonpayable",
      "type": "function"
    },
    {
      "inputs": [
        {
          "internalType": "address",
          "name": "_from",
          "type": "address"
        },
        {
          "internalType": "address",
          "name": "_to",
          "type": "address"
        },
        {
          "internalType": "uint256",
          "name": "_id",
          "type": "uint256"
        },
        {
          "internalType": "uint256",
          "name": "_value",
          "type": "uint256"
        },
        {
          "internalType": "bytes",
          "name": "_data",
          "type": "bytes"
        }
      ],
      "name": "safeTransferFrom",
      "outputs": [],
      "stateMutability": "nonpayable",
      "type": "function"
    },
    {
      "inputs": [
        {
          "internalType": "address",
          "name": "_operator",
          "type": "address"
        },
        {
          "internalType": "bool",
          "name": "_approved",
          "type": "bool"
        }
      ],
      "name": "setApprovalForAll",
      "outputs": [],
      "stateMutability": "nonpayable",
      "type": "function"
    },
    {
      "inputs": [
        {
          "internalType": "bytes4",
          "name": "interfaceId",
          "type": "bytes4"
        }
      ],
      "name": "supportsInterface",
      "outputs": [
        {
          "internalType": "bool",
          "name": "",
          "type": "bool"
        }
      ],
      "stateMutability": "view",
      "type": "function"
    },
    {
      "inputs": [
        {
          "internalType": "uint256",
          "name": "",
          "type": "uint256"
        }
      ],
      "name": "uri",
      "outputs": [
        {
          "internalType": "string",
          "name": "",
          "type": "string"
        }
      ],
      "stateMutability": "view",
      "type": "function"
    }
  ],
  "bytecode": "0x608060405260016003556001600460006101000a81548173ffffffffffffffffffffffffffffffffffffffff021916908373ffffffffffffffffffffffffffffffffffffffff16021790555060006005556040518060400160405280600481526020017f6e616d6500000000000000000000000000000000000000000000000000000000815250600790805190602001906200009d929190620006bd565b506040518060400160405280600581526020017f73636f726500000000000000000000000000000000000000000000000000000081525060089080519060200190620000eb929190620006bd565b50348015620000f957600080fd5b5060405162003de138038062003de183398181016040528101906200011f91906200082c565b6040518060400160405280601b81526020017f536e616b652067616d65207265776172647320636f6e747261637400000000008152506200016681620001d660201b60201c565b5080600660006101000a81548173ffffffffffffffffffffffffffffffffffffffff021916908373ffffffffffffffffffffffffffffffffffffffff160217905550620001cf6001600354600160405180602001604052806000815250620001f260201b60201c565b5062000ef6565b8060029080519060200190620001ee9291906200074e565b5050565b600073ffffffffffffffffffffffffffffffffffffffff168473ffffffffffffffffffffffffffffffffffffffff16141562000265576040517f08c379a00000000000000000000000000000000000000000000000000000000081526004016200025c9062000a69565b60405180910390fd5b600062000277620003b760201b60201c565b9050620002b0816000876200029288620003bf60201b60201c565b620002a388620003bf60201b60201c565b876200048860201b60201c565b8260008086815260200190815260200160002060008773ffffffffffffffffffffffffffffffffffffffff1673ffffffffffffffffffffffffffffffffffffffff168152602001908152602001600020600082825462000311919062000afa565b925050819055508473ffffffffffffffffffffffffffffffffffffffff16600073ffffffffffffffffffffffffffffffffffffffff168273ffffffffffffffffffffffffffffffffffffffff167fc3d58168c5ae7397731d063d5bbf3d657854427343f4c083240f7aacaa2d0f6287876040516200039192919062000a8b565b60405180910390a4620003b0816000878787876200049060201b60201c565b5050505050565b600033905090565b60606000600167ffffffffffffffff81111562000405577f4e487b7100000000000000000000000000000000000000000000000000000000600052604160045260246000fd5b604051908082528060200260200182016040528015620004345781602001602082028036833780820191505090505b509050828160008151811062000473577f4e487b7100000000000000000000000000000000000000000000000000000000600052603260045260246000fd5b60200260200101818152505080915050919050565b505050505050565b620004bc8473ffffffffffffffffffffffffffffffffffffffff166200069a60201b62000c301760201c565b1562000692578373ffffffffffffffffffffffffffffffffffffffff1663f23a6e6187878686866040518663ffffffff1660e01b8152600401620005059594939291906200099d565b602060405180830381600087803b1580156200052057600080fd5b505af19250505080156200055457506040513d601f19601f8201168201806040525081019062000551919062000858565b60015b62000606576200056362000cf0565b806308c379a01415620005c757506200057b62000e20565b80620005885750620005c9565b806040517f08c379a0000000000000000000000000000000000000000000000000000000008152600401620005be919062000a01565b60405180910390fd5b505b6040517f08c379a0000000000000000000000000000000000000000000000000000000008152600401620005fd9062000a25565b60405180910390fd5b63f23a6e6160e01b7bffffffffffffffffffffffffffffffffffffffffffffffffffffffff1916817bffffffffffffffffffffffffffffffffffffffffffffffffffffffff19161462000690576040517f08c379a0000000000000000000000000000000000000000000000000000000008152600401620006879062000a47565b60405180910390fd5b505b505050505050565b6000808273ffffffffffffffffffffffffffffffffffffffff163b119050919050565b828054620006cb9062000bf7565b90600052602060002090601f016020900481019282620006ef57600085556200073b565b82601f106200070a57805160ff19168380011785556200073b565b828001600101855582156200073b579182015b828111156200073a5782518255916020019190600101906200071d565b5b5090506200074a9190620007df565b5090565b8280546200075c9062000bf7565b90600052602060002090601f016020900481019282620007805760008555620007cc565b82601f106200079b57805160ff1916838001178555620007cc565b82800160010185558215620007cc579182015b82811115620007cb578251825591602001919060010190620007ae565b5b509050620007db9190620007df565b5090565b5b80821115620007fa576000816000905550600101620007e0565b5090565b6000815190506200080f8162000ec2565b92915050565b600081519050620008268162000edc565b92915050565b6000602082840312156200083f57600080fd5b60006200084f84828501620007fe565b91505092915050565b6000602082840312156200086b57600080fd5b60006200087b8482850162000815565b91505092915050565b6200088f8162000b57565b82525050565b6000620008a28262000ac2565b620008ae818562000ad8565b9350620008c081856020860162000bc1565b620008cb8162000d15565b840191505092915050565b6000620008e38262000acd565b620008ef818562000ae9565b93506200090181856020860162000bc1565b6200090c8162000d15565b840191505092915050565b60006200092660348362000ae9565b9150620009338262000d33565b604082019050919050565b60006200094d60288362000ae9565b91506200095a8262000d82565b604082019050919050565b60006200097460218362000ae9565b9150620009818262000dd1565b604082019050919050565b620009978162000bb7565b82525050565b600060a082019050620009b4600083018862000884565b620009c3602083018762000884565b620009d260408301866200098c565b620009e160608301856200098c565b8181036080830152620009f5818462000895565b90509695505050505050565b6000602082019050818103600083015262000a1d8184620008d6565b905092915050565b6000602082019050818103600083015262000a408162000917565b9050919050565b6000602082019050818103600083015262000a62816200093e565b9050919050565b6000602082019050818103600083015262000a848162000965565b9050919050565b600060408201905062000aa260008301856200098c565b62000ab160208301846200098c565b9392505050565b6000604051905090565b600081519050919050565b600081519050919050565b600082825260208201905092915050565b600082825260208201905092915050565b600062000b078262000bb7565b915062000b148362000bb7565b9250827fffffffffffffffffffffffffffffffffffffffffffffffffffffffffffffffff0382111562000b4c5762000b4b62000c63565b5b828201905092915050565b600062000b648262000b97565b9050919050565b60007fffffffff0000000000000000000000000000000000000000000000000000000082169050919050565b600073ffffffffffffffffffffffffffffffffffffffff82169050919050565b6000819050919050565b60005b8381101562000be157808201518184015260208101905062000bc4565b8381111562000bf1576000848401525b50505050565b6000600282049050600182168062000c1057607f821691505b6020821081141562000c275762000c2662000c92565b5b50919050565b62000c388262000d15565b810181811067ffffffffffffffff8211171562000c5a5762000c5962000cc1565b5b80604052505050565b7f4e487b7100000000000000000000000000000000000000000000000000000000600052601160045260246000fd5b7f4e487b7100000000000000000000000000000000000000000000000000000000600052602260045260246000fd5b7f4e487b7100000000000000000000000000000000000000000000000000000000600052604160045260246000fd5b600060033d111562000d125760046000803e62000d0f60005162000d26565b90505b90565b6000601f19601f8301169050919050565b60008160e01c9050919050565b7f455243313135353a207472616e7366657220746f206e6f6e204552433131353560008201527f526563656976657220696d706c656d656e746572000000000000000000000000602082015250565b7f455243313135353a204552433131353552656365697665722072656a6563746560008201527f6420746f6b656e73000000000000000000000000000000000000000000000000602082015250565b7f455243313135353a206d696e7420746f20746865207a65726f2061646472657360008201527f7300000000000000000000000000000000000000000000000000000000000000602082015250565b600060443d101562000e325762000ebf565b62000e3c62000ab8565b60043d036004823e80513d602482011167ffffffffffffffff8211171562000e6657505062000ebf565b808201805167ffffffffffffffff81111562000e86575050505062000ebf565b80602083010160043d03850181111562000ea557505050505062000ebf565b62000eb68260200185018662000c2d565b82955050505050505b90565b62000ecd8162000b57565b811462000ed957600080fd5b50565b62000ee78162000b6b565b811462000ef357600080fd5b50565b612edb8062000f066000396000f3fe608060405234801561001057600080fd5b50600436106100ce5760003560e01c80634e1273f41161008c578063a22cb46511610066578063a22cb46514610238578063e985e9c514610254578063f242432a14610284578063f29512c9146102a0576100ce565b80634e1273f4146101ce5780637ddf663b146101fe5780637dfca8c01461021c576100ce565b8062fdd58e146100d357806301ffc9a7146101035780630e89341c146101335780632eb2c2d61461016357806339760f3c1461017f5780633c7b5326146101b0575b600080fd5b6100ed60048036038101906100e89190611b00565b6102be565b6040516100fa9190612418565b60405180910390f35b61011d60048036038101906101189190611bd1565b610387565b60405161012a91906121f0565b60405180910390f35b61014d60048036038101906101489190611d1a565b610469565b60405161015a91906122b6565b60405180910390f35b61017d60048036038101906101789190611966565b6104fd565b005b61019960048036038101906101949190611c98565b610538565b6040516101a792919061214b565b60405180910390f35b6101b86105dc565b6040516101c59190612418565b60405180910390f35b6101e860048036038101906101e39190611b3c565b6105e2565b6040516101f591906121ce565b60405180910390f35b610206610793565b6040516102139190612418565b60405180910390f35b61023660048036038101906102319190611c23565b610799565b005b610252600480360381019061024d9190611ac4565b610b00565b005b61026e6004803603810190610269919061192a565b610b3b565b60405161027b91906121f0565b60405180910390f35b61029e60048036038101906102999190611a32565b610bcf565b005b6102a8610c0a565b6040516102b59190612130565b60405180910390f35b60008073ffffffffffffffffffffffffffffffffffffffff168373ffffffffffffffffffffffffffffffffffffffff16141561032f576040517f08c379a000000000000000000000000000000000000000000000000000000000815260040161032690612318565b60405180910390fd5b60008083815260200190815260200160002060008473ffffffffffffffffffffffffffffffffffffffff1673ffffffffffffffffffffffffffffffffffffffff16815260200190815260200160002054905092915050565b60007fd9b67a26000000000000000000000000000000000000000000000000000000007bffffffffffffffffffffffffffffffffffffffffffffffffffffffff1916827bffffffffffffffffffffffffffffffffffffffffffffffffffffffff1916148061045257507f0e89341c000000000000000000000000000000000000000000000000000000007bffffffffffffffffffffffffffffffffffffffffffffffffffffffff1916827bffffffffffffffffffffffffffffffffffffffffffffffffffffffff1916145b80610462575061046182610c53565b5b9050919050565b60606002805461047890612989565b80601f01602080910402602001604051908101604052809291908181526020018280546104a490612989565b80156104f15780601f106104c6576101008083540402835291602001916104f1565b820191906000526020600020905b8154815290600101906020018083116104d457829003601f168201915b50505050509050919050565b6040517f08c379a000000000000000000000000000000000000000000000000000000000815260040161052f90612378565b60405180910390fd5b600080336105d373__$99f14cdd5d46aa4993f40ff55b10e41f56$__63e6736e868660076040518363ffffffff1660e01b815260040161057992919061227f565b60006040518083038186803b15801561059157600080fd5b505af41580156105a5573d6000803e3d6000fd5b505050506040513d6000823e3d601f19601f820116820180604052508101906105ce9190611cd9565b610cbd565b91509150915091565b60035481565b60608151835114610628576040517f08c379a000000000000000000000000000000000000000000000000000000000815260040161061f906123f8565b60405180910390fd5b6000835167ffffffffffffffff81111561066b577f4e487b7100000000000000000000000000000000000000000000000000000000600052604160045260246000fd5b6040519080825280602002602001820160405280156106995781602001602082028036833780820191505090505b50905060005b8451811015610788576107328582815181106106e4577f4e487b7100000000000000000000000000000000000000000000000000000000600052603260045260246000fd5b6020026020010151858381518110610725577f4e487b7100000000000000000000000000000000000000000000000000000000600052603260045260246000fd5b60200260200101516102be565b82828151811061076b577f4e487b7100000000000000000000000000000000000000000000000000000000600052603260045260246000fd5b60200260200101818152505080610781906129ec565b905061069f565b508091505092915050565b60055481565b600660009054906101000a900473ffffffffffffffffffffffffffffffffffffffff1673ffffffffffffffffffffffffffffffffffffffff1663696778a0858585856040518563ffffffff1660e01b81526004016107fa949392919061220b565b60206040518083038186803b15801561081257600080fd5b505afa158015610826573d6000803e3d6000fd5b505050506040513d601f19601f8201168201806040525081019061084a9190611ba8565b610889576040517f08c379a000000000000000000000000000000000000000000000000000000000815260040161088090612358565b60405180910390fd5b3373ffffffffffffffffffffffffffffffffffffffff1661093973__$99f14cdd5d46aa4993f40ff55b10e41f56$__63e6736e86878760076040518463ffffffff1660e01b81526004016108df93929190612246565b60006040518083038186803b1580156108f757600080fd5b505af415801561090b573d6000803e3d6000fd5b505050506040513d6000823e3d601f19601f820116820180604052508101906109349190611cd9565b610cbd565b73ffffffffffffffffffffffffffffffffffffffff161461098f576040517f08c379a000000000000000000000000000000000000000000000000000000000815260040161098690612338565b60405180910390fd5b6000610a2a73__$99f14cdd5d46aa4993f40ff55b10e41f56$__63e6736e86878760086040518463ffffffff1660e01b81526004016109d093929190612246565b60006040518083038186803b1580156109e857600080fd5b505af41580156109fc573d6000803e3d6000fd5b505050506040513d6000823e3d601f19601f82011682018060405250810190610a259190611cd9565b610fd7565b90506005548111610a70576040517f08c379a0000000000000000000000000000000000000000000000000000000008152600401610a6790612398565b60405180910390fd5b80600581905550610ab8600460009054906101000a900473ffffffffffffffffffffffffffffffffffffffff1633600354600160405180602001604052806000815250611093565b33600460006101000a81548173ffffffffffffffffffffffffffffffffffffffff021916908373ffffffffffffffffffffffffffffffffffffffff1602179055505050505050565b6040517f08c379a0000000000000000000000000000000000000000000000000000000008152600401610b3290612378565b60405180910390fd5b6000600160008473ffffffffffffffffffffffffffffffffffffffff1673ffffffffffffffffffffffffffffffffffffffff16815260200190815260200160002060008373ffffffffffffffffffffffffffffffffffffffff1673ffffffffffffffffffffffffffffffffffffffff16815260200190815260200160002060009054906101000a900460ff16905092915050565b6040517f08c379a0000000000000000000000000000000000000000000000000000000008152600401610c0190612378565b60405180910390fd5b600460009054906101000a900473ffffffffffffffffffffffffffffffffffffffff1681565b6000808273ffffffffffffffffffffffffffffffffffffffff163b119050919050565b60007f01ffc9a7000000000000000000000000000000000000000000000000000000007bffffffffffffffffffffffffffffffffffffffffffffffffffffffff1916827bffffffffffffffffffffffffffffffffffffffffffffffffffffffff1916149050919050565b600080829050600080806000600290505b602a811015610fca5761010084610ce591906127c3565b9350848181518110610d20577f4e487b7100000000000000000000000000000000000000000000000000000000600052603260045260246000fd5b602001015160f81c60f81b60f81c60ff16925084600182610d4191906125fc565b81518110610d78577f4e487b7100000000000000000000000000000000000000000000000000000000600052603260045260246000fd5b602001015160f81c60f81b60f81c60ff16915060618373ffffffffffffffffffffffffffffffffffffffff1610158015610dc9575060668373ffffffffffffffffffffffffffffffffffffffff1611155b15610de257605783610ddb919061286b565b9250610e8e565b60418373ffffffffffffffffffffffffffffffffffffffff1610158015610e20575060468373ffffffffffffffffffffffffffffffffffffffff1611155b15610e3957603783610e32919061286b565b9250610e8d565b60308373ffffffffffffffffffffffffffffffffffffffff1610158015610e77575060398373ffffffffffffffffffffffffffffffffffffffff1611155b15610e8c57603083610e89919061286b565b92505b5b5b60618273ffffffffffffffffffffffffffffffffffffffff1610158015610ecc575060668273ffffffffffffffffffffffffffffffffffffffff1611155b15610ee557605782610ede919061286b565b9150610f91565b60418273ffffffffffffffffffffffffffffffffffffffff1610158015610f23575060468273ffffffffffffffffffffffffffffffffffffffff1611155b15610f3c57603782610f35919061286b565b9150610f90565b60308273ffffffffffffffffffffffffffffffffffffffff1610158015610f7a575060398273ffffffffffffffffffffffffffffffffffffffff1611155b15610f8f57603082610f8c919061286b565b91505b5b5b81601084610f9f91906127c3565b610fa991906125b2565b84610fb491906125b2565b9350600281610fc391906125fc565b9050610cce565b5082945050505050919050565b600080600090505b825181101561108d57600181610ff591906125fc565b8351611001919061289f565b600861100d9190612811565b600261101991906126a5565b838281518110611052577f4e487b7100000000000000000000000000000000000000000000000000000000600052603260045260246000fd5b602001015160f81c60f81b60f81c60ff1661106d9190612811565b8261107891906125fc565b91508080611085906129ec565b915050610fdf565b50919050565b600073ffffffffffffffffffffffffffffffffffffffff168473ffffffffffffffffffffffffffffffffffffffff161415611103576040517f08c379a00000000000000000000000000000000000000000000000000000000081526004016110fa906123b8565b60405180910390fd5b600061110d611315565b905061112d81878761111e8861131d565b6111278861131d565b876113e3565b600080600086815260200190815260200160002060008873ffffffffffffffffffffffffffffffffffffffff1673ffffffffffffffffffffffffffffffffffffffff168152602001908152602001600020549050838110156111c4576040517f08c379a00000000000000000000000000000000000000000000000000000000081526004016111bb906123d8565b60405180910390fd5b83810360008087815260200190815260200160002060008973ffffffffffffffffffffffffffffffffffffffff1673ffffffffffffffffffffffffffffffffffffffff168152602001908152602001600020819055508360008087815260200190815260200160002060008873ffffffffffffffffffffffffffffffffffffffff1673ffffffffffffffffffffffffffffffffffffffff168152602001908152602001600020600082825461127991906125fc565b925050819055508573ffffffffffffffffffffffffffffffffffffffff168773ffffffffffffffffffffffffffffffffffffffff168373ffffffffffffffffffffffffffffffffffffffff167fc3d58168c5ae7397731d063d5bbf3d657854427343f4c083240f7aacaa2d0f6288886040516112f6929190612433565b60405180910390a461130c8288888888886113eb565b50505050505050565b600033905090565b60606000600167ffffffffffffffff811115611362577f4e487b7100000000000000000000000000000000000000000000000000000000600052604160045260246000fd5b6040519080825280602002602001820160405280156113905781602001602082028036833780820191505090505b50905082816000815181106113ce577f4e487b7100000000000000000000000000000000000000000000000000000000600052603260045260246000fd5b60200260200101818152505080915050919050565b505050505050565b61140a8473ffffffffffffffffffffffffffffffffffffffff16610c30565b156115ca578373ffffffffffffffffffffffffffffffffffffffff1663f23a6e6187878686866040518663ffffffff1660e01b8152600401611450959493929190612174565b602060405180830381600087803b15801561146a57600080fd5b505af192505050801561149b57506040513d601f19601f820116820180604052508101906114989190611bfa565b60015b611541576114a7612ac2565b806308c379a0141561150457506114bc612db3565b806114c75750611506565b806040517f08c379a00000000000000000000000000000000000000000000000000000000081526004016114fb91906122b6565b60405180910390fd5b505b6040517f08c379a0000000000000000000000000000000000000000000000000000000008152600401611538906122d8565b60405180910390fd5b63f23a6e6160e01b7bffffffffffffffffffffffffffffffffffffffffffffffffffffffff1916817bffffffffffffffffffffffffffffffffffffffffffffffffffffffff1916146115c8576040517f08c379a00000000000000000000000000000000000000000000000000000000081526004016115bf906122f8565b60405180910390fd5b505b505050505050565b60006115e56115e084612481565b61245c565b9050808382526020820190508285602086028201111561160457600080fd5b60005b85811015611634578161161a8882611726565b845260208401935060208301925050600181019050611607565b5050509392505050565b600061165161164c846124ad565b61245c565b9050808382526020820190508285602086028201111561167057600080fd5b60005b858110156116a057816116868882611915565b845260208401935060208301925050600181019050611673565b5050509392505050565b60006116bd6116b8846124d9565b61245c565b9050828152602081018484840111156116d557600080fd5b6116e0848285612947565b509392505050565b60006116fb6116f6846124d9565b61245c565b90508281526020810184848401111561171357600080fd5b61171e848285612956565b509392505050565b60008135905061173581612e49565b92915050565b600082601f83011261174c57600080fd5b813561175c8482602086016115d2565b91505092915050565b60008083601f84011261177757600080fd5b8235905067ffffffffffffffff81111561179057600080fd5b6020830191508360208202830111156117a857600080fd5b9250929050565b60008083601f8401126117c157600080fd5b8235905067ffffffffffffffff8111156117da57600080fd5b6020830191508360208202830111156117f257600080fd5b9250929050565b600082601f83011261180a57600080fd5b813561181a84826020860161163e565b91505092915050565b60008135905061183281612e60565b92915050565b60008151905061184781612e60565b92915050565b60008135905061185c81612e77565b92915050565b60008151905061187181612e77565b92915050565b60008083601f84011261188957600080fd5b8235905067ffffffffffffffff8111156118a257600080fd5b6020830191508360018202830111156118ba57600080fd5b9250929050565b600082601f8301126118d257600080fd5b81356118e28482602086016116aa565b91505092915050565b600082601f8301126118fc57600080fd5b815161190c8482602086016116e8565b91505092915050565b60008135905061192481612e8e565b92915050565b6000806040838503121561193d57600080fd5b600061194b85828601611726565b925050602061195c85828601611726565b9150509250929050565b60008060008060008060008060a0898b03121561198257600080fd5b60006119908b828c01611726565b98505060206119a18b828c01611726565b975050604089013567ffffffffffffffff8111156119be57600080fd5b6119ca8b828c016117af565b9650965050606089013567ffffffffffffffff8111156119e957600080fd5b6119f58b828c016117af565b9450945050608089013567ffffffffffffffff811115611a1457600080fd5b611a208b828c01611877565b92509250509295985092959890939650565b60008060008060008060a08789031215611a4b57600080fd5b6000611a5989828a01611726565b9650506020611a6a89828a01611726565b9550506040611a7b89828a01611915565b9450506060611a8c89828a01611915565b935050608087013567ffffffffffffffff811115611aa957600080fd5b611ab589828a01611877565b92509250509295509295509295565b60008060408385031215611ad757600080fd5b6000611ae585828601611726565b9250506020611af685828601611823565b9150509250929050565b60008060408385031215611b1357600080fd5b6000611b2185828601611726565b9250506020611b3285828601611915565b9150509250929050565b60008060408385031215611b4f57600080fd5b600083013567ffffffffffffffff811115611b6957600080fd5b611b758582860161173b565b925050602083013567ffffffffffffffff811115611b9257600080fd5b611b9e858286016117f9565b9150509250929050565b600060208284031215611bba57600080fd5b6000611bc884828501611838565b91505092915050565b600060208284031215611be357600080fd5b6000611bf18482850161184d565b91505092915050565b600060208284031215611c0c57600080fd5b6000611c1a84828501611862565b91505092915050565b60008060008060408587031215611c3957600080fd5b600085013567ffffffffffffffff811115611c5357600080fd5b611c5f87828801611877565b9450945050602085013567ffffffffffffffff811115611c7e57600080fd5b611c8a87828801611765565b925092505092959194509250565b600060208284031215611caa57600080fd5b600082013567ffffffffffffffff811115611cc457600080fd5b611cd0848285016118c1565b91505092915050565b600060208284031215611ceb57600080fd5b600082015167ffffffffffffffff811115611d0557600080fd5b611d11848285016118eb565b91505092915050565b600060208284031215611d2c57600080fd5b6000611d3a84828501611915565b91505092915050565b6000611d4f8383612112565b60208301905092915050565b611d64816128d3565b82525050565b6000611d76838561255d565b93507f07ffffffffffffffffffffffffffffffffffffffffffffffffffffffffffffff831115611da557600080fd5b602083029250611db6838584612947565b82840190509392505050565b6000611dcd8261252f565b611dd7818561256e565b9350611de28361250a565b8060005b83811015611e13578151611dfa8882611d43565b9750611e0583612550565b925050600181019050611de6565b5085935050505092915050565b611e29816128e5565b82525050565b6000611e3b838561257f565b9350611e48838584612947565b611e5183612ae4565b840190509392505050565b6000611e688385612590565b9350611e75838584612947565b611e7e83612ae4565b840190509392505050565b6000611e948261253a565b611e9e818561257f565b9350611eae818560208601612956565b611eb781612ae4565b840191505092915050565b6000611ecd8261253a565b611ed78185612590565b9350611ee7818560208601612956565b611ef081612ae4565b840191505092915050565b60008154611f0881612989565b611f128186612590565b94506001821660008114611f2d5760018114611f3f57611f72565b60ff1983168652602086019350611f72565b611f488561251a565b60005b83811015611f6a57815481890152600182019150602081019050611f4b565b808801955050505b50505092915050565b6000611f8682612545565b611f9081856125a1565b9350611fa0818560208601612956565b611fa981612ae4565b840191505092915050565b6000611fc16034836125a1565b9150611fcc82612b0f565b604082019050919050565b6000611fe46028836125a1565b9150611fef82612b5e565b604082019050919050565b6000612007602b836125a1565b915061201282612bad565b604082019050919050565b600061202a6024836125a1565b915061203582612bfc565b604082019050919050565b600061204d600d836125a1565b915061205882612c4b565b602082019050919050565b60006120706010836125a1565b915061207b82612c74565b602082019050919050565b6000612093601e836125a1565b915061209e82612c9d565b602082019050919050565b60006120b66025836125a1565b91506120c182612cc6565b604082019050919050565b60006120d9602a836125a1565b91506120e482612d15565b604082019050919050565b60006120fc6029836125a1565b915061210782612d64565b604082019050919050565b61211b8161293d565b82525050565b61212a8161293d565b82525050565b60006020820190506121456000830184611d5b565b92915050565b60006040820190506121606000830185611d5b565b61216d6020830184611d5b565b9392505050565b600060a0820190506121896000830188611d5b565b6121966020830187611d5b565b6121a36040830186612121565b6121b06060830185612121565b81810360808301526121c28184611e89565b90509695505050505050565b600060208201905081810360008301526121e88184611dc2565b905092915050565b60006020820190506122056000830184611e20565b92915050565b60006040820190508181036000830152612226818688611e2f565b9050818103602083015261223b818486611d6a565b905095945050505050565b60006040820190508181036000830152612261818587611e5c565b905081810360208301526122758184611efb565b9050949350505050565b600060408201905081810360008301526122998185611ec2565b905081810360208301526122ad8184611efb565b90509392505050565b600060208201905081810360008301526122d08184611f7b565b905092915050565b600060208201905081810360008301526122f181611fb4565b9050919050565b6000602082019050818103600083015261231181611fd7565b9050919050565b6000602082019050818103600083015261233181611ffa565b9050919050565b600060208201905081810360008301526123518161201d565b9050919050565b6000602082019050818103600083015261237181612040565b9050919050565b6000602082019050818103600083015261239181612063565b9050919050565b600060208201905081810360008301526123b181612086565b9050919050565b600060208201905081810360008301526123d1816120a9565b9050919050565b600060208201905081810360008301526123f1816120cc565b9050919050565b60006020820190508181036000830152612411816120ef565b9050919050565b600060208201905061242d6000830184612121565b92915050565b60006040820190506124486000830185612121565b6124556020830184612121565b9392505050565b6000612466612477565b905061247282826129bb565b919050565b6000604051905090565b600067ffffffffffffffff82111561249c5761249b612a93565b5b602082029050602081019050919050565b600067ffffffffffffffff8211156124c8576124c7612a93565b5b602082029050602081019050919050565b600067ffffffffffffffff8211156124f4576124f3612a93565b5b6124fd82612ae4565b9050602081019050919050565b6000819050602082019050919050565b60008190508160005260206000209050919050565b600081519050919050565b600081519050919050565b600081519050919050565b6000602082019050919050565b600082825260208201905092915050565b600082825260208201905092915050565b600082825260208201905092915050565b600082825260208201905092915050565b600082825260208201905092915050565b60006125bd8261291d565b91506125c88361291d565b92508273ffffffffffffffffffffffffffffffffffffffff038211156125f1576125f0612a35565b5b828201905092915050565b60006126078261293d565b91506126128361293d565b9250827fffffffffffffffffffffffffffffffffffffffffffffffffffffffffffffffff0382111561264757612646612a35565b5b828201905092915050565b6000808291508390505b600185111561269c5780860481111561267857612677612a35565b5b60018516156126875780820291505b808102905061269585612af5565b945061265c565b94509492505050565b60006126b08261293d565b91506126bb8361293d565b92506126e87fffffffffffffffffffffffffffffffffffffffffffffffffffffffffffffffff84846126f0565b905092915050565b60008261270057600190506127bc565b8161270e57600090506127bc565b8160018114612724576002811461272e5761275d565b60019150506127bc565b60ff8411156127405761273f612a35565b5b8360020a91508482111561275757612756612a35565b5b506127bc565b5060208310610133831016604e8410600b84101617156127925782820a90508381111561278d5761278c612a35565b5b6127bc565b61279f8484846001612652565b925090508184048111156127b6576127b5612a35565b5b81810290505b9392505050565b60006127ce8261291d565b91506127d98361291d565b92508173ffffffffffffffffffffffffffffffffffffffff048311821515161561280657612805612a35565b5b828202905092915050565b600061281c8261293d565b91506128278361293d565b9250817fffffffffffffffffffffffffffffffffffffffffffffffffffffffffffffffff04831182151516156128605761285f612a35565b5b828202905092915050565b60006128768261291d565b91506128818361291d565b92508282101561289457612893612a35565b5b828203905092915050565b60006128aa8261293d565b91506128b58361293d565b9250828210156128c8576128c7612a35565b5b828203905092915050565b60006128de8261291d565b9050919050565b60008115159050919050565b60007fffffffff0000000000000000000000000000000000000000000000000000000082169050919050565b600073ffffffffffffffffffffffffffffffffffffffff82169050919050565b6000819050919050565b82818337600083830152505050565b60005b83811015612974578082015181840152602081019050612959565b83811115612983576000848401525b50505050565b600060028204905060018216806129a157607f821691505b602082108114156129b5576129b4612a64565b5b50919050565b6129c482612ae4565b810181811067ffffffffffffffff821117156129e3576129e2612a93565b5b80604052505050565b60006129f78261293d565b91507fffffffffffffffffffffffffffffffffffffffffffffffffffffffffffffffff821415612a2a57612a29612a35565b5b600182019050919050565b7f4e487b7100000000000000000000000000000000000000000000000000000000600052601160045260246000fd5b7f4e487b7100000000000000000000000000000000000000000000000000000000600052602260045260246000fd5b7f4e487b7100000000000000000000000000000000000000000000000000000000600052604160045260246000fd5b600060033d1115612ae15760046000803e612ade600051612b02565b90505b90565b6000601f19601f8301169050919050565b60008160011c9050919050565b60008160e01c9050919050565b7f455243313135353a207472616e7366657220746f206e6f6e204552433131353560008201527f526563656976657220696d706c656d656e746572000000000000000000000000602082015250565b7f455243313135353a204552433131353552656365697665722072656a6563746560008201527f6420746f6b656e73000000000000000000000000000000000000000000000000602082015250565b7f455243313135353a2062616c616e636520717565727920666f7220746865207a60008201527f65726f2061646472657373000000000000000000000000000000000000000000602082015250565b7f596f7520617265206e6f7420746865206f776e6572206f66207468617420736360008201527f6f72652100000000000000000000000000000000000000000000000000000000602082015250565b7f596f75277265206c79696e672100000000000000000000000000000000000000600082015250565b7f4f68206e6f20796f75206469276e742100000000000000000000000000000000600082015250565b7f596f7520646f6e277420686176652074686520686967682073636f7265210000600082015250565b7f455243313135353a207472616e7366657220746f20746865207a65726f20616460008201527f6472657373000000000000000000000000000000000000000000000000000000602082015250565b7f455243313135353a20696e73756666696369656e742062616c616e636520666f60008201527f72207472616e7366657200000000000000000000000000000000000000000000602082015250565b7f455243313135353a206163636f756e747320616e6420696473206c656e67746860008201527f206d69736d617463680000000000000000000000000000000000000000000000602082015250565b600060443d1015612dc357612e46565b612dcb612477565b60043d036004823e80513d602482011167ffffffffffffffff82111715612df3575050612e46565b808201805167ffffffffffffffff811115612e115750505050612e46565b80602083010160043d038501811115612e2e575050505050612e46565b612e3d826020018501866129bb565b82955050505050505b90565b612e52816128d3565b8114612e5d57600080fd5b50565b612e69816128e5565b8114612e7457600080fd5b50565b612e80816128f1565b8114612e8b57600080fd5b50565b612e978161293d565b8114612ea257600080fd5b5056fea2646970667358221220ce6c770e88f452add68e2a5e5fea6d0e04d8bb92652575117a1de66371beda9664736f6c63430008040033",
  "linkReferences": {
    "contracts/CBOR/CBORDecoding.sol": {
      "CBORDecoding": [
        {
          "length": 20,
          "start": 5191
        },
        {
          "length": 20,
          "start": 6059
        },
        {
          "length": 20,
          "start": 6300
        }
      ]
    }
  },
  "deployedLinkReferences": {
    "contracts/CBOR/CBORDecoding.sol": {
      "CBORDecoding": [
        {
          "length": 20,
          "start": 1345
        },
        {
          "length": 20,
          "start": 2213
        },
        {
          "length": 20,
          "start": 2454
        }
      ]
    }
  }
}